:08000000010A6400DD0BBC0BDA
:100378006D006E000A023D0009023C001D028E005D
:100388004307C80B1C028D0003060008030C2C0051
:10039800970C2B00EB02CE0BEC02CE0BD30B010C0F
:1003A8003C007D001C02ED010306AE021D02EE01B9
:1003B800BE0BC00C0200080C0600C704E704460484
:1003C80026040604460426040605F40C2900010C3C
:1003D8002A000309460426050604F40C2900010C2A
:1003E8002A000309460526040604F40C2900010C1A
:0603F8002A000309E60BD8
:021FFE00EBFFF7
:00000001FF
