:08000000010A6400BE0BDE0BD7
:10037C00C00C0200080C06004605260506054604BE
:10038C0026050605F40C2900010C2A000309460574
:10039C0026040605F40C2900010C2A000309460565
:1003AC0026050604F40C2900010C2A000309C50BD0
:1003BC006D006E000A023D0009023C001D028E0019
:1003CC004307EA0B1C028D0003060008030C2C00EB
:1003DC00970C2B00EB02F00BEC02F00BF50B010C65
:1003EC003C007D001C02ED010306AE021D02EE0175
:0203FC00E00B14
:021FFE00EBFFF7
:00000001FF
