:0A000000010A6400B50B900B6F0BB2
:1002DE007300740010023D000F023C001D029400DA
:1002EE0043077B0B1C02930003060008030C32002D
:1002FE00970C3100F102810BF202810B860B010C7F
:10030E003C007D001C02F3010306B4021D02F40141
:10031E00710B6D006E0009079E0B0C023D000B0267
:10032E003C001C02ED010306AE021D02EE01010CA3
:10033E003C0003046B036C03FC02A00B010C3C009D
:10034E0003042A032903FC02A70B09020A0143072F
:10035E00920B0E022A000D0229000008750076008D
:10036E00800C0200080C06004605260506056607E9
:10037E00C90BE50B640C2F00000C30000409460479
:10038E00260406046607C10B010C3C007D001C020E
:10039E00F5010306B6021D02F60116023F00150214
:1003AE003E001F02800F3C00800C9C004307E10BB7
:1003BE00030C9E000307E50B750076004605260527
:1003CE00060516022A0015022900640C2B00000CEB
:1003DE002C0003090A02300009022F00040946040A
:1003EE0026040604640C2F00000C30000409BE0B1A
:021FFE00EBFFF7
:00000001FF
